{
  "_format": "hh-sol-artifact-1",
  "contractName": "Learn2Earn",
  "sourceName": "contracts/Learn2Earn.sol",
  "abi": [
    {
      "inputs": [
        {
          "internalType": "string",
          "name": "_institute",
          "type": "string"
        },
        {
          "internalType": "address",
          "name": "_x2EarnRewardsPoolContract",
          "type": "address"
        },
        {
          "internalType": "bytes32",
          "name": "_appId",
          "type": "bytes32"
        }
      ],
      "stateMutability": "nonpayable",
      "type": "constructor"
    },
    {
      "anonymous": false,
      "inputs": [
        {
          "indexed": false,
          "internalType": "string",
          "name": "institute",
          "type": "string"
        },
        {
          "indexed": false,
          "internalType": "bytes32",
          "name": "certificateHash",
          "type": "bytes32"
        },
        {
          "indexed": false,
          "internalType": "address",
          "name": "student",
          "type": "address"
        }
      ],
      "name": "CertificateIssued",
      "type": "event"
    },
    {
      "anonymous": false,
      "inputs": [
        {
          "indexed": true,
          "internalType": "address",
          "name": "user",
          "type": "address"
        },
        {
          "indexed": false,
          "internalType": "uint256",
          "name": "amount",
          "type": "uint256"
        }
      ],
      "name": "RewardDistributed",
      "type": "event"
    },
    {
      "anonymous": false,
      "inputs": [
        {
          "indexed": true,
          "internalType": "address",
          "name": "user",
          "type": "address"
        },
        {
          "indexed": false,
          "internalType": "bool",
          "name": "approved",
          "type": "bool"
        }
      ],
      "name": "SubmissionGraded",
      "type": "event"
    },
    {
      "anonymous": false,
      "inputs": [
        {
          "indexed": true,
          "internalType": "address",
          "name": "user",
          "type": "address"
        },
        {
          "indexed": false,
          "internalType": "string",
          "name": "proof",
          "type": "string"
        }
      ],
      "name": "SubmissionReceived",
      "type": "event"
    },
    {
      "inputs": [
        {
          "internalType": "string",
          "name": "_name",
          "type": "string"
        },
        {
          "internalType": "string",
          "name": "_familyName",
          "type": "string"
        }
      ],
      "name": "addStudent",
      "outputs": [],
      "stateMutability": "payable",
      "type": "function"
    },
    {
      "inputs": [],
      "name": "appId",
      "outputs": [
        {
          "internalType": "bytes32",
          "name": "",
          "type": "bytes32"
        }
      ],
      "stateMutability": "view",
      "type": "function"
    },
    {
      "inputs": [],
      "name": "getAvailableFunds",
      "outputs": [
        {
          "internalType": "uint256",
          "name": "",
          "type": "uint256"
        }
      ],
      "stateMutability": "view",
      "type": "function"
    },
    {
      "inputs": [
        {
          "internalType": "address",
          "name": "studentAddress",
          "type": "address"
        }
      ],
      "name": "getSubmission",
      "outputs": [
        {
          "internalType": "string",
          "name": "",
          "type": "string"
        }
      ],
      "stateMutability": "view",
      "type": "function"
    },
    {
      "inputs": [
        {
          "internalType": "address",
          "name": "studentAddress",
          "type": "address"
        },
        {
          "internalType": "bool",
          "name": "approved",
          "type": "bool"
        }
      ],
      "name": "gradeSubmission",
      "outputs": [],
      "stateMutability": "nonpayable",
      "type": "function"
    },
    {
      "inputs": [
        {
          "internalType": "address",
          "name": "",
          "type": "address"
        }
      ],
      "name": "graded",
      "outputs": [
        {
          "internalType": "bool",
          "name": "",
          "type": "bool"
        }
      ],
      "stateMutability": "view",
      "type": "function"
    },
    {
      "inputs": [],
      "name": "institute",
      "outputs": [
        {
          "internalType": "string",
          "name": "",
          "type": "string"
        }
      ],
      "stateMutability": "view",
      "type": "function"
    },
    {
      "inputs": [
        {
          "internalType": "address",
          "name": "studentAddress",
          "type": "address"
        }
      ],
      "name": "isGraded",
      "outputs": [
        {
          "internalType": "bool",
          "name": "",
          "type": "bool"
        }
      ],
      "stateMutability": "view",
      "type": "function"
    },
    {
      "inputs": [
        {
          "internalType": "address",
          "name": "studentAddress",
          "type": "address"
        }
      ],
      "name": "isGraduated",
      "outputs": [
        {
          "internalType": "bool",
          "name": "",
          "type": "bool"
        }
      ],
      "stateMutability": "view",
      "type": "function"
    },
    {
      "inputs": [
        {
          "internalType": "address",
          "name": "studentAddress",
          "type": "address"
        }
      ],
      "name": "isRewarded",
      "outputs": [
        {
          "internalType": "bool",
          "name": "",
          "type": "bool"
        }
      ],
      "stateMutability": "view",
      "type": "function"
    },
    {
      "inputs": [
        {
          "internalType": "address",
          "name": "studentAddress",
          "type": "address"
        }
      ],
      "name": "issueCertificate",
      "outputs": [],
      "stateMutability": "nonpayable",
      "type": "function"
    },
    {
      "inputs": [],
      "name": "rewardAmount",
      "outputs": [
        {
          "internalType": "uint256",
          "name": "",
          "type": "uint256"
        }
      ],
      "stateMutability": "view",
      "type": "function"
    },
    {
      "inputs": [
        {
          "internalType": "address",
          "name": "",
          "type": "address"
        }
      ],
      "name": "rewarded",
      "outputs": [
        {
          "internalType": "bool",
          "name": "",
          "type": "bool"
        }
      ],
      "stateMutability": "view",
      "type": "function"
    },
    {
      "inputs": [
        {
          "internalType": "uint256",
          "name": "_amount",
          "type": "uint256"
        }
      ],
      "name": "setRewardAmount",
      "outputs": [],
      "stateMutability": "nonpayable",
      "type": "function"
    },
    {
      "inputs": [
        {
          "internalType": "address",
          "name": "",
          "type": "address"
        }
      ],
      "name": "students",
      "outputs": [
        {
          "internalType": "address",
          "name": "wallet",
          "type": "address"
        },
        {
          "internalType": "string",
          "name": "name",
          "type": "string"
        },
        {
          "internalType": "string",
          "name": "familyName",
          "type": "string"
        },
        {
          "internalType": "bool",
          "name": "registered",
          "type": "bool"
        },
        {
          "internalType": "bool",
          "name": "graduated",
          "type": "bool"
        },
        {
          "internalType": "bytes32",
          "name": "certificate",
          "type": "bytes32"
        }
      ],
      "stateMutability": "view",
      "type": "function"
    },
    {
      "inputs": [
        {
          "internalType": "address",
          "name": "",
          "type": "address"
        }
      ],
      "name": "submissions",
      "outputs": [
        {
          "internalType": "string",
          "name": "",
          "type": "string"
        }
      ],
      "stateMutability": "view",
      "type": "function"
    },
    {
      "inputs": [
        {
          "internalType": "string",
          "name": "proof",
          "type": "string"
        }
      ],
      "name": "submitProof",
      "outputs": [],
      "stateMutability": "nonpayable",
      "type": "function"
    },
    {
      "inputs": [
        {
          "internalType": "bytes32",
          "name": "_appId",
          "type": "bytes32"
        }
      ],
      "name": "updateAppId",
      "outputs": [],
      "stateMutability": "nonpayable",
      "type": "function"
    },
    {
      "inputs": [],
      "name": "withdrawBalance",
      "outputs": [],
      "stateMutability": "nonpayable",
      "type": "function"
    },
    {
      "inputs": [],
      "name": "x2EarnRewardsPoolContract",
      "outputs": [
        {
          "internalType": "contract IX2EarnRewardsPool",
          "name": "",
          "type": "address"
        }
      ],
      "stateMutability": "view",
      "type": "function"
    }
  ],
  "bytecode": "0x6080604052678ac7230489e800006004553480156200001c575f80fd5b5060405162001c3a38038062001c3a8339810160408190526200003f91620000ba565b5f80546001600160a01b0319163317905560016200005e84826200022f565b50600280546001600160a01b0319166001600160a01b03939093169290921790915560035550620002f7565b634e487b7160e01b5f52604160045260245ffd5b80516001600160a01b0381168114620000b5575f80fd5b919050565b5f805f60608486031215620000cd575f80fd5b83516001600160401b0380821115620000e4575f80fd5b818601915086601f830112620000f8575f80fd5b8151818111156200010d576200010d6200008a565b604051601f8201601f19908116603f011681019083821181831017156200013857620001386200008a565b8160405282815260209350898484870101111562000154575f80fd5b5f91505b8282101562000177578482018401518183018501529083019062000158565b5f848483010152809750505050620001918187016200009e565b93505050604084015190509250925092565b600181811c90821680620001b857607f821691505b602082108103620001d757634e487b7160e01b5f52602260045260245ffd5b50919050565b601f8211156200022a575f81815260208120601f850160051c81016020861015620002055750805b601f850160051c820191505b81811015620002265782815560010162000211565b5050505b505050565b81516001600160401b038111156200024b576200024b6200008a565b62000263816200025c8454620001a3565b84620001dd565b602080601f83116001811462000299575f8415620002815750858301515b5f19600386901b1c1916600185901b17855562000226565b5f85815260208120601f198616915b82811015620002c957888601518255948401946001909101908401620002a8565b5085821015620002e757878501515f19600388901b60f8161c191681555b5050505050600190811b01905550565b61193580620003055f395ff3fe60806040526004361061011b575f3560e01c806380afdea81161009d578063cc1f9bf511610062578063cc1f9bf514610377578063e27bb1f7146103ae578063e479deee146103c1578063f78145f3146103e0578063f7b2a7be146103ff575f80fd5b806380afdea8146102df57806389e14e16146102f45780638db50bae14610313578063a6c807a914610327578063a8a65a7814610358575f80fd5b80635195bd29116100e35780635195bd29146101fc5780635da2c0d01461021e5780635fd8c7101461025557806362844fe01461026957806368a4c8b7146102a0575f80fd5b80630237a12d1461011f5780632c2e8faf14610162578063379f53e31461018357806340bc7fa2146101b1578063421928e9146101dd575b5f80fd5b34801561012a575f80fd5b5061014d61013936600461135b565b60076020525f908152604090205460ff1681565b60405190151581526020015b60405180910390f35b34801561016d575f80fd5b5061018161017c366004611418565b610414565b005b34801561018e575f80fd5b5061014d61019d36600461135b565b60086020525f908152604090205460ff1681565b3480156101bc575f80fd5b506101d06101cb36600461135b565b6105a1565b6040516101599190611495565b3480156101e8575f80fd5b506101816101f736600461135b565b61064a565b348015610207575f80fd5b50610210610857565b604051908152602001610159565b348015610229575f80fd5b5060025461023d906001600160a01b031681565b6040516001600160a01b039091168152602001610159565b348015610260575f80fd5b506101816108cb565b348015610274575f80fd5b5061014d61028336600461135b565b6001600160a01b03165f9081526007602052604090205460ff1690565b3480156102ab575f80fd5b5061014d6102ba36600461135b565b6001600160a01b03165f90815260056020526040902060030154610100900460ff1690565b3480156102ea575f80fd5b5061021060035481565b3480156102ff575f80fd5b506101d061030e36600461135b565b610a09565b34801561031e575f80fd5b506101d0610aa0565b348015610332575f80fd5b5061034661034136600461135b565b610aad565b604051610159969594939291906114a7565b348015610363575f80fd5b506101816103723660046114fb565b610bfe565b348015610382575f80fd5b5061014d61039136600461135b565b6001600160a01b03165f9081526008602052604090205460ff1690565b6101816103bc366004611512565b610cbd565b3480156103cc575f80fd5b506101816103db366004611572565b610e3a565b3480156103eb575f80fd5b506101816103fa3660046114fb565b611068565b34801561040a575f80fd5b5061021060045481565b335f9081526005602052604090206003015460ff166104945760405162461bcd60e51b815260206004820152603160248201527f596f75206d757374206265206120726567697374657265642073747564656e74604482015270103a379039bab136b4ba10383937b7b31760791b60648201526084015b60405180910390fd5b335f90815260056020526040902060030154610100900460ff16156104fb5760405162461bcd60e51b815260206004820152601b60248201527f596f75206861766520616c7265616479206772616475617465642e0000000000604482015260640161048b565b5f8151116105445760405162461bcd60e51b8152602060048201526016602482015275283937b7b31031b0b73737ba1031329032b6b83a3c9760511b604482015260640161048b565b335f90815260066020526040902061055c8282611631565b50336001600160a01b03167f623d8b021dbbb8e5bf90963f03de1d9b60027fbc9bcd1ec011a37318306fdb27826040516105969190611495565b60405180910390a250565b6001600160a01b0381165f9081526006602052604090208054606091906105c7906115ab565b80601f01602080910402602001604051908101604052809291908181526020018280546105f3906115ab565b801561063e5780601f106106155761010080835404028352916020019161063e565b820191905f5260205f20905b81548152906001019060200180831161062157829003601f168201915b50505050509050919050565b5f546001600160a01b031633146106b65760405162461bcd60e51b815260206004820152602a60248201527f4f6e6c7920746865207265676973747261722063616e206973737565206365726044820152693a34b334b1b0ba32b99760b11b606482015260840161048b565b6106bf816110d4565b15610854576001600160a01b0381165f9081526005602052604090206003810154610100900460ff16156107415760405162461bcd60e51b815260206004820152602360248201527f546869732073747564656e742068617320616c7265616479206772616475617460448201526232b21760e91b606482015260840161048b565b6001600160a01b0382165f9081526007602052604090205460ff166107b95760405162461bcd60e51b815260206004820152602860248201527f53747564656e74207375626d697373696f6e206d75737420626520677261646560448201526732103334b939ba1760c11b606482015260840161048b565b80546040805142602080830191909152606084901b6bffffffffffffffffffffffff1916828401528251808303603401815260549092019283905281519101206004840181905560038401805461ff0019166101001790557f5131a4a7dd71283d5deacdb80feb6d3008dcac225ba25996fcc535caa16bafec9261084a92600192916001600160a01b0316906116ed565b60405180910390a1505b50565b600254600354604051633c9d10cd60e21b815260048101919091525f916001600160a01b03169063f274433490602401602060405180830381865afa1580156108a2573d5f803e3d5ffd5b505050506040513d601f19601f820116820180604052508101906108c69190611789565b905090565b5f546001600160a01b031633146109245760405162461bcd60e51b815260206004820181905260248201527f4f6e6c7920746865207265676973747261722063616e2077697468647261772e604482015260640161048b565b47806109725760405162461bcd60e51b815260206004820152601760248201527f4e6f2062616c616e636520746f2077697468647261772e000000000000000000604482015260640161048b565b5f80546040516001600160a01b039091169083908381818185875af1925050503d805f81146109bc576040519150601f19603f3d011682016040523d82523d5f602084013e6109c1565b606091505b5050905080610a055760405162461bcd60e51b815260206004820152601060248201526f2a3930b739b332b9103330b4b632b21760811b604482015260640161048b565b5050565b60066020525f908152604090208054610a21906115ab565b80601f0160208091040260200160405190810160405280929190818152602001828054610a4d906115ab565b8015610a985780601f10610a6f57610100808354040283529160200191610a98565b820191905f5260205f20905b815481529060010190602001808311610a7b57829003601f168201915b505050505081565b60018054610a21906115ab565b60056020525f9081526040902080546001820180546001600160a01b039092169291610ad8906115ab565b80601f0160208091040260200160405190810160405280929190818152602001828054610b04906115ab565b8015610b4f5780601f10610b2657610100808354040283529160200191610b4f565b820191905f5260205f20905b815481529060010190602001808311610b3257829003601f168201915b505050505090806002018054610b64906115ab565b80601f0160208091040260200160405190810160405280929190818152602001828054610b90906115ab565b8015610bdb5780601f10610bb257610100808354040283529160200191610bdb565b820191905f5260205f20905b815481529060010190602001808311610bbe57829003601f168201915b505050506003830154600490930154919260ff8082169361010090920416915086565b5f546001600160a01b03163314610c695760405162461bcd60e51b815260206004820152602960248201527f4f6e6c7920746865207265676973747261722063616e20736574207265776172604482015268321030b6b7bab73a1760b91b606482015260840161048b565b5f8111610cb85760405162461bcd60e51b815260206004820152601e60248201527f416d6f756e74206d7573742062652067726561746572207468616e20302e0000604482015260640161048b565b600455565b34670de0b6b3a764000014610d145760405162461bcd60e51b815260206004820152601f60248201527f596f75206d7573742070617920312056455420746f2072656769737465722e00604482015260640161048b565b335f9081526005602052604090206003015460ff1615610d765760405162461bcd60e51b815260206004820152601b60248201527f596f752061726520616c726561647920726567697374657265642e0000000000604482015260640161048b565b6040805160c0810182523380825260208083018681528385018690526001606085018190525f6080860181905260a08601819052938452600590925293909120825181546001600160a01b0319166001600160a01b03909116178155925191929190820190610de59082611631565b5060408201516002820190610dfa9082611631565b506060820151600382018054608085015115156101000261ff00199315159390931661ffff199091161791909117905560a0909101516004909101555050565b5f546001600160a01b03163314610ea55760405162461bcd60e51b815260206004820152602960248201527f4f6e6c7920746865207265676973747261722063616e2067726164652073756260448201526836b4b9b9b4b7b7399760b91b606482015260840161048b565b6001600160a01b0382165f9081526005602052604090206003015460ff16610edf5760405162461bcd60e51b815260040161048b906117a0565b6001600160a01b0382165f9081526006602052604081208054610f01906115ab565b905011610f5e5760405162461bcd60e51b815260206004820152602560248201527f4e6f207375626d697373696f6e20666f756e6420666f722074686973207374756044820152643232b73a1760d91b606482015260840161048b565b6001600160a01b0382165f9081526007602052604090205460ff1615610fd75760405162461bcd60e51b815260206004820152602860248201527f54686973207375626d697373696f6e2068617320616c7265616479206265656e6044820152671033b930b232b21760c11b606482015260840161048b565b6001600160a01b0382165f8181526007602052604090819020805460ff19166001179055517f0c1a77ad7e2fa13512da35e90d52fa9cd072a8111e7b915428ee100a853bb12d9061102d90841515815260200190565b60405180910390a280801561105a57506001600160a01b0382165f9081526008602052604090205460ff16155b15610a0557610a0582611118565b5f546001600160a01b031633146110cf5760405162461bcd60e51b815260206004820152602560248201527f4f6e6c7920746865207265676973747261722063616e20757064617465206170604482015264381024a21760d91b606482015260840161048b565b600355565b6001600160a01b0381165f908152600560205260408120600381015460ff1661110f5760405162461bcd60e51b815260040161048b906117a0565b50600192915050565b5f600454116111755760405162461bcd60e51b8152602060048201526024808201527f52657761726420616d6f756e74206d75737420626520677265617465722074686044820152630616e20360e41b606482015260840161048b565b600254600354604051633c9d10cd60e21b81526001600160a01b039092169163f2744334916111aa9160040190815260200190565b602060405180830381865afa1580156111c5573d5f803e3d5ffd5b505050506040513d601f19601f820116820180604052508101906111e99190611789565b60045411156112455760405162461bcd60e51b815260206004820152602260248201527f496e73756666696369656e742066756e647320696e207265776172647320706f6044820152611bdb60f21b606482015260840161048b565b6001600160a01b0381165f908152600860209081526040808320805460ff191660019081179091556006835281842091516112809301611857565b60408051601f19818403018152908290526002546003546004805463f7335f1160e01b86529395506001600160a01b039092169363f7335f11936112ca93909188918891016118c9565b5f604051808303815f87803b1580156112e1575f80fd5b505af11580156112f3573d5f803e3d5ffd5b50505050816001600160a01b03167fe34918ff1c7084970068b53fd71ad6d8b04e9f15d3886cbf006443e6cdc52ea660045460405161133491815260200190565b60405180910390a25050565b80356001600160a01b0381168114611356575f80fd5b919050565b5f6020828403121561136b575f80fd5b61137482611340565b9392505050565b634e487b7160e01b5f52604160045260245ffd5b5f82601f83011261139e575f80fd5b813567ffffffffffffffff808211156113b9576113b961137b565b604051601f8301601f19908116603f011681019082821181831017156113e1576113e161137b565b816040528381528660208588010111156113f9575f80fd5b836020870160208301375f602085830101528094505050505092915050565b5f60208284031215611428575f80fd5b813567ffffffffffffffff81111561143e575f80fd5b61144a8482850161138f565b949350505050565b5f81518084525f5b818110156114765760208185018101518683018201520161145a565b505f602082860101526020601f19601f83011685010191505092915050565b602081525f6113746020830184611452565b6001600160a01b038716815260c0602082018190525f906114ca90830188611452565b82810360408401526114dc8188611452565b95151560608401525050911515608083015260a0909101529392505050565b5f6020828403121561150b575f80fd5b5035919050565b5f8060408385031215611523575f80fd5b823567ffffffffffffffff8082111561153a575f80fd5b6115468683870161138f565b9350602085013591508082111561155b575f80fd5b506115688582860161138f565b9150509250929050565b5f8060408385031215611583575f80fd5b61158c83611340565b9150602083013580151581146115a0575f80fd5b809150509250929050565b600181811c908216806115bf57607f821691505b6020821081036115dd57634e487b7160e01b5f52602260045260245ffd5b50919050565b601f82111561162c575f81815260208120601f850160051c810160208610156116095750805b601f850160051c820191505b8181101561162857828155600101611615565b5050505b505050565b815167ffffffffffffffff81111561164b5761164b61137b565b61165f8161165984546115ab565b846115e3565b602080601f831160018114611692575f841561167b5750858301515b5f19600386901b1c1916600185901b178555611628565b5f85815260208120601f198616915b828110156116c0578886015182559484019460019091019084016116a1565b50858210156116dd57878501515f19600388901b60f8161c191681555b5050505050600190811b01905550565b606081525f8085546116fe816115ab565b806060860152608060018084165f811461171f576001811461173957611767565b60ff1985168884015283151560051b880183019550611767565b8a5f526020805f205f5b8681101561175e5781548b8201870152908401908201611743565b8a018501975050505b5050505050602083018590526001600160a01b0384166040840152905061144a565b5f60208284031215611799575f80fd5b5051919050565b60208082526028908201527f5468697320706572736f6e206973206e6f74206120726567697374657265642060408201526739ba3ab232b73a1760c11b606082015260800190565b5f81546117f4816115ab565b6001828116801561180c57600181146118215761184d565b60ff198416875282151583028701945061184d565b855f526020805f205f5b858110156118445781548a82015290840190820161182b565b50505082870194505b5050505092915050565b7f7b2274797065223a22656475636174696f6e222c227375626d697373696f6e228152611d1160f11b60208201525f61189360228301856117e8565b6e11161134b739ba34ba3aba32911d1160891b81526118b5600f8201856117e8565b61227d60f01b815260020195945050505050565b84815283602082015260018060a01b0383166040820152608060608201525f6118f56080830184611452565b969550505050505056fea2646970667358221220eef52047f423aca52aba7475af2d8b1826ac5580777d9978f3b7e83f5040003f64736f6c63430008140033",
  "linkReferences": {},
  "deployedLinkReferences": {}
}